:100000000C945A000C9477000C9477000C946B07B6
:100010000C9477000C9421070C9477000C947700D3
:100020000C9477000C9477000C9477000C94770074
:100030000C9477000C9477000C9477000C94770064
:100040000C9477000C9477000C94A8050C9477001E
:100050000C9477000C9477000C9477000C94770044
:100060000C9477000C9477000C9477000C94770034
:100070000C9477000C9477000C9477000C94770024
:100080000C9477000C9477000C9477000C94770014
:100090000C9477000C9477000C9477000C94770004
:1000A0000C9477000C9477000C9477000C947700F4
:1000B0000C94770011241FBECFEFD8E0DEBFCDBF78
:1000C00011E0A0E0B1E0E6EAF3E102C005900D9294
:1000D000A03CB107D9F721E0A0ECB1E001C01D922E
:1000E000A23EB207E1F70E94C9070C94D1090C9413
:1000F000000088E48093B80082E08093B9000895FE
:100100008091BC008823E4F7089584EA8093BC00C2
:100110000E948000089584E98093BC008091BC0017
:1001200084FDFCCF08958093BB0084E88093BC00DD
:100130000E9480000895CF93C82F0E9485008EE40E
:100140000E9493008C2F0E9493000E948B0083E0FA
:100150008A95F1F70000CF910895CF93DF93209116
:10016000C0019091000130E1839FE0011124822FB2
:10017000892B8C2B84600E949B0038E03A95F1F724
:1001800000009091C00180910001892B8C2B0E946E
:100190009B0038E03A95F1F70000DF91CF91089588
:1001A000CF93C82F81E08093C0018C2F82958F70F0
:1001B0000E94AD008C2F8F700E94AD0081E28A9565
:1001C000F1F70000CF9108950F931F93CF93DF9322
:1001D000009769F0D62F8C01C0E007C0F801EC0F42
:1001E000F11D80810E94D000CF5FCD17B8F3DF9161
:1001F000CF911F910F910895CF93C82F1092C001F6
:1002000082958F700E94AD008C2F8F700E94AD0080
:1002100081E28A95F1F70000CF91089581E00E9474
:10022000FC00089582E00E94FC0083EC99E00197B5
:10023000F1F700C000000895CF93DF93D82FC62FA9
:10024000611103C080680E94FC00C13029F480E481
:100250008D0F80680E94FC00C23029F484E18D0F6C
:1002600080680E94FC00C33029F484E58D0F80680B
:100270000E94FC00DF91CF910895CF930E947900F6
:100280001092C001C0E00AC083E00E94AD008BED77
:1002900095E00197F1F700C00000CF5FC330A0F3F5
:1002A00082E00E94AD0089EF90E00197F1F700C075
:1002B00000008CE20E94FC0088E00E94FC0081E0CB
:1002C0000E94FC009FE926E881E091502040804098
:1002D000E1F700C0000086E00E94FC008CE00E9474
:1002E000FC00CF910895EF92FF920F931F93CF934D
:1002F000DF9300D01F92CDB7DEB78430910509F4AB
:1003000082C01CF499232CF482C1059709F405C11D
:100310007EC160E083E00E941C0166E083E091E022
:100320000E94E4000F2EF4EDEF2EF1E0FF2EF02DF1
:10033000F701808191814AE08E010F5F1F4FB80164
:100340000E949C0960E089E00E941C0162E0C801F3
:100350000E94E40061E083E00E941C0166E08AE004
:1003600091E00E94E400F701828193814AE0B801A4
:100370000E949C0961E089E00E941C0162E0C801C2
:100380000E94E40062E083E00E941C0166E081E1DB
:1003900091E00E94E400F701848195814AE0B80170
:1003A0000E949C0962E089E00E941C0162E0C80191
:1003B0000E94E40063E083E00E941C0164E088E1A5
:1003C00091E00E94E400F701868197814AE0B8013C
:1003D0000E949C0963E089E00E941C01F8010190E1
:1003E0000020E9F73197BF01601B710BC8010E9423
:1003F000E40063E08CE00E941C0161E08EE191E08A
:100400000E94E40004C160E083E00E941C0166E0F9
:100410008AE091E00E94E4000F2EF4EDEF2EF1E06F
:10042000FF2EF02DF701828193814AE08E010F5F4C
:100430001F4FB8010E949C0960E089E00E941C01E6
:1004400062E0C8010E94E40061E083E00E941C01B8
:1004500066E081E191E00E94E400F70184819581EA
:100460004AE0B8010E949C0961E089E00E941C01F9
:1004700062E0C8010E94E40062E083E00E941C0187
:1004800064E080E291E00E94E400F70186819781B8
:100490004AE0B8010E949C0962E089E00E941C01C8
:1004A000F80101900020E9F73197BF01601B710B43
:1004B000C8010E94E40062E08CE00E941C0161E03F
:1004C0008EE191E00E94E40063E083E00E941C0161
:1004D00066E085E291E00E94E400F7018085918565
:1004E0004AE0B8010E949C0963E089E00E941C0177
:1004F000F80101900020E9F73197BF01601B710BF3
:10050000C8010E94E40063E08CE00E941C0161E0ED
:100510008EE191E00E94E4007AC060E083E00E94F6
:100520001C0166E081E191E00E94E4000F2EF4EDF1
:10053000EF2EF1E0FF2EF02DF701848195814AE046
:100540008E010F5F1F4FB8010E949C0960E089E097
:100550000E941C0162E0C8010E94E40061E083E0A7
:100560000E941C0164E080E291E00E94E400F70137
:10057000868197814AE0B8010E949C0961E089E088
:100580000E941C01F80101900020E9F73197BF019A
:10059000601B710BC8010E94E40061E08CE00E94C6
:1005A0001C0161E08EE191E00E94E40062E083E0E2
:1005B0000E941C0166E085E291E00E94E400F701E0
:1005C000808591854AE0B8010E949C0962E089E03B
:1005D0000E941C01F80101900020E9F73197BF014A
:1005E000601B710BC8010E94E40062E08CE00E9475
:1005F0001C0161E08EE191E00E94E40063E083E091
:100600000E941C0166E08CE291E00E94E4000F90E1
:100610000F900F90DF91CF911F910F91FF90EF906E
:100620000895EF92FF920F931F93CF93DF9300D023
:100630001F92CDB7DEB78C017B018430910589F123
:100640001CF499234CF49BC08530910509F44EC0ED
:10065000069709F470C093C060E083E00E941C011B
:1006600066E083E091E00E94E40061E083E00E94A4
:100670001C0166E08AE091E00E94E40062E083E011
:100680000E941C0166E081E191E00E94E40063E0C9
:1006900083E00E941C0164E080E291E00E94E4009B
:1006A0006EC060E083E00E941C0166E08AE091E099
:1006B0000E94E40061E083E00E941C0166E081E1A9
:1006C00091E00E94E40062E083E00E941C0164E08B
:1006D00080E291E00E94E40063E083E00E941C015C
:1006E00066E085E291E00E94E40049C060E083E0BA
:1006F0000E941C0166E081E191E00E94E40061E05B
:1007000083E00E941C0164E080E291E00E94E4002A
:1007100062E083E00E941C0166E085E291E00E94B5
:10072000E40063E083E00E941C0166E083E391E063
:100730000E94E40024C060E083E00E941C0164E0A9
:1007400080E291E00E94E40061E083E00E941C01ED
:1007500066E085E291E00E94E40062E083E00E94AE
:100760001C0166E083E391E00E94E40063E083E023
:100770000E941C0166E08CE291E00E94E4000230DD
:10078000110509F455C03CF40115110579F001304B
:10079000110569F1D0C00430110509F48BC00CF4C7
:1007A00068C00530110509F4A6C0C5C0E5ECF1E04C
:1007B00080819181E80EF91EF182E0828081918131
:1007C0004AE08E010F5F1F4FB8010E949C0960E054
:1007D00089E00E941C01F80101900020E9F731979F
:1007E000BF01601B710BC8010E94E400A4C0E5ECCE
:1007F000F1E082819381E80EF91EF382E282828128
:1008000093814AE08E010F5F1F4FB8010E949C093F
:1008100061E089E00E941C01F80101900020E9F7E5
:100820003197BF01601B710BC8010E94E40083C0B7
:10083000E5ECF1E084819581E80EF91EF582E48211
:10084000848195814AE08E010F5F1F4FB8010E949D
:100850009C0962E089E00E941C01F80101900020DF
:10086000E9F73197BF01601B710BC8010E94E400DA
:1008700062C0E5ECF1E086819781E80EF91EF7820F
:10088000E682868197814AE08E010F5F1F4FB80193
:100890000E949C0963E089E00E941C01F80101901C
:1008A0000020E9F73197BF01601B710BC8010E945E
:1008B000E40041C0E5ECF1E080859185E80EF91E89
:1008C000F186E086808591854AE08E010F5F1F4F9B
:1008D000B8010E949C0963E089E00E941C01F801B4
:1008E00001900020E9F73197BF01601B710BC8012F
:1008F0000E94E40020C0E5ECF1E082859385E80EDB
:10090000F91EF386E286828593854AE08E010F5FA9
:100910001F4FB8010E949C0963E089E00E941C01FE
:10092000F80101900020E9F73197BF01601B710BBE
:10093000C8010E94E4000F900F900F90DF91CF91BB
:100940001F910F91FF90EF900895CF92DF92FF9249
:100950000F931F93CF93DF938C016A01EB012197D3
:10096000C430D10514F4FC2E04C00F2EF3E0FF2E8A
:10097000F02D0E940E016F2D80E00E941C0163E0AB
:100980008AE391E00E94E4000130110539F11CF482
:10099000012B41F048C00230110521F1033011054F
:1009A00031F141C060E083E00E941C016FE08EE302
:1009B00091E00E94E40061E083E00E941C0165E098
:1009C0008EE491E00E94E40062E083E00E941C015A
:1009D0006AE084E591E00E94E4007DC0CE010E94BF
:1009E000730179C0B601CE010E94110374C060E0AA
:1009F00083E00E941C0168E08FE591E00E94E40022
:100A000061E083E00E941C0164E088E691E00E94BE
:100A1000E40062E083E00E941C0166E08CE291E069
:100A20000E94E40058C00E940E0160E080E00E9435
:100A30001C0165E08DE691E00E94E4002FEF89E65D
:100A400098E1215080409040E1F700C0000067E04D
:100A500080E00E941C0161E083E791E00E94E400D5
:100A60002FEF89E698E1215080409040E1F700C0E7
:100A7000000068E080E00E941C0161E083E791E0F3
:100A80000E94E4002FEF89E698E1215080409040D9
:100A9000E1F700C0000069E080E00E941C0161E015
:100AA00083E791E00E94E4002FEF89E698E121506E
:100AB00080409040E1F700C000001092C401109205
:100AC000C3018091C3019091C40140E050E061E016
:100AD00070E00E94A504DF91CF911F910F91FF90CC
:100AE000DF90CF9008951092C5008FEC8093C400E2
:100AF00082E08093C00088E98093C10086E0809303
:100B0000C2000895EAE7F0E08081806880838081F8
:100B100087608083808180648083ECE7F0E080815F
:100B20008064808308958770ECE7F0E09081987F7F
:100B3000892B8083EAE7F0E0808180648083809164
:100B40007A0086FDFCCF809178009091790008951D
:100B50001F920F920FB60F9211248F938091C600AF
:100B60008093D3018F910F900FBE0F901F90189517
:100B7000BC01990F880B990B0E94A30827EF31E065
:100B800048EC5DE30E942F090E946B08CB01089599
:100B90000E9479000E94850080ED0E94930087E00A
:100BA0000E94930080E00E9493000E948B000895B1
:100BB000189951C080910101909102010196909382
:100BC000020180930101809101019091020104973B
:100BD00094F08091C3019091C401892B31F08091F0
:100BE000C3019091C401039731F481E090E09093A8
:100BF0000201809301018091010190910201079708
:100C000064F08091C3019091C401019731F481E0B7
:100C100090E09093020180930101809101019091F5
:100C20000201089764F08091C3019091C40102977A
:100C300031F481E090E09093020180930101609192
:100C40000101709102018091C3019091C40140E0C3
:100C500050E00E94A50408954E9947C0809101017B
:100C6000909102010197909302018093010180917C
:100C70000101909102011816190694F08091C301A8
:100C80009091C401892B31F08091C3019091C401EE
:100C9000039731F483E090E0909302018093010187
:100CA00080910101909102011816190694F080912B
:100CB000C3019091C401019731F08091C3019091DB
:100CC000C401029731F487E090E090930201809391
:100CD000010160910101709102018091C301909125
:100CE000C40140E050E00E94A50408954F9986C0D9
:100CF0008091C3019091C401892BD1F480910101AD
:100D0000909102019093C4018093C30181E090E02F
:100D100090930201809301016091010170910201A1
:100D20008091C3019091C40140E050E00E94A5046D
:100D30008091C3019091C4010197E1F48091010178
:100D4000909102010697B1F41092C4011092C30170
:100D500081E090E090930201809301016091010194
:100D6000709102018091C3019091C40140E050E074
:100D70000E94A5048091C3019091C4010297E1F4FF
:100D800080910101909102010797B1F41092C40182
:100D90001092C30181E090E09093020180930101E1
:100DA00060910101709102018091C3019091C40191
:100DB00040E050E00E94A5048091C3019091C401DD
:100DC0000397E1F480910101909102010397B1F43E
:100DD0001092C4011092C30181E090E0909302014F
:100DE0008093010160910101709102018091C30122
:100DF0009091C40140E050E00E94A50408954D99EF
:100E00001FC02FEF81EE94E0215080409040E1F729
:100E100000C000009BB180E289278BB98091C3019B
:100E20009091C401029761F46091010170910201F7
:100E30008091C3019091C4014FEF5FEF0E94A50420
:100E400008951F920F920FB60F9211242F933F9384
:100E50004F935F936F937F938F939F93AF93BF93C2
:100E6000EF93FF930E94FF060E942C060E947606D5
:100E7000FF91EF91BF91AF919F918F917F916F9172
:100E80005F914F913F912F910F900FBE0F901F9048
:100E9000189519991FC02FEF81EE94E021508040E2
:100EA0009040E1F700C0000095B182E0892785B944
:100EB0008091C3019091C401029761F46091010196
:100EC000709102018091C3019091C40141E050E012
:100ED0000E94A50408951F920F920FB60F9211243D
:100EE0002F933F934F935F936F937F938F939F9332
:100EF000AF93BF93EF93FF930E94D8050E944907D9
:100F0000FF91EF91BF91AF919F918F917F916F91E1
:100F10005F914F913F912F910F900FBE0F901F90B7
:100F20001895CF93DF93EC018091D1019091D2017C
:100F30000E94B8052091C1013091C201232BD1F448
:100F40002091CD013091CE0128173907FCF081E0C6
:100F500090E09093C2018093C10188B1886088B904
:100F60002FEF81EE94E0215080409040E1F700C0E7
:100F700000000CC0C80FD91FC817D9073CF0109249
:100F8000C2011092C10188B1877F88B9DF91CF91EA
:100F900008958AB180618AB987B1816087B987B1C4
:100FA000826087B987B1846087B987B1886087B963
:100FB000EBE6F0E0808183608083EDE6F0E0808105
:100FC000806E8083E8E6F0E080818560808385B173
:100FD000816085B985B1826085B98BB180628BB93A
:100FE0008BB180648BB98BB180688BB9E4EDF1E093
:100FF0008AE090E09183808384E190E09383828310
:101000008EE190E0958384838681978180859185A8
:10101000E5ECF1E08FE090E09183808389E190E05E
:101020009383828383E290E0958384838DE290E0D2
:1010300097838683118610860E9482050E9473051D
:101040000E943D010E94C8050E9412010E940E01EB
:101050007894609101017091020140E050E080E0DD
:1010600090E00E94A5049BB180E189278BB986E0BE
:101070000E9493059093E1018093E00187E00E9434
:1010800093058C019093D2018093D1018091E0016E
:101090009091E1010E94B805C4EDD1E09F838E8359
:1010A000C8010E94B805998788878091CF019091E7
:1010B000D0010E9491078091D301813321F488B13E
:1010C000886088B9D0CF8091D301823361F688B12E
:1010D000877F88B9C8CF0E9472086894B1110C94B8
:1010E000290908950E940E0988F09F5798F0B92F9A
:1010F0009927B751B0F0E1F0660F771F881F991F4D
:101100001AF0BA95C9F714C0B13091F00E942809BD
:10111000B1E008950C942809672F782F8827B85FCD
:1011200039F0B93FCCF3869577956795B395D9F7A4
:101130003EF490958095709561957F4F8F4F9F4FAE
:101140000895E89409C097FB3EF4909580957095BA
:1011500061957F4F8F4F9F4F9923A9F0F92F96E903
:10116000BB279395F695879577956795B795F11178
:10117000F8CFFAF4BB0F11F460FF1BC06F5F7F4F15
:101180008F4F9F4F16C0882311F096E911C0772327
:1011900021F09EE8872F762F05C0662371F096E830
:1011A000862F70E060E02AF09A95660F771F881FFF
:1011B000DAF7880F9695879597F9089597F99F67BD
:1011C00080E870E060E008959FEF80EC08950024CF
:1011D0000A941616170618060906089500240A949C
:1011E00012161306140605060895092E0394000C22
:1011F00011F4882352F0BB0F40F4BF2B11F460FFB1
:1012000004C06F5F7F4F8F4F9F4F089557FD9058D9
:10121000440F551F59F05F3F71F04795880F97FBBA
:10122000991F61F09F3F79F0879508951216130674
:101230001406551FF2CF4695F1DF08C016161706A3
:101240001806991FF1CF86957105610508940895D8
:10125000E894BB2766277727CB0197F908950E946A
:1012600042090C94F5080E94E70838F00E94EE0845
:1012700020F0952311F00C94DE080C94E40811245E
:101280000C9429090E94060970F3959FC1F3950FEC
:1012900050E0551F629FF001729FBB27F00DB11DFA
:1012A000639FAA27F00DB11DAA1F649F6627B00D8A
:1012B000A11D661F829F2227B00DA11D621F739F73
:1012C000B00DA11D621F839FA00D611D221F749F81
:1012D0003327A00D611D231F849F600D211D822FC8
:1012E000762F6A2F11249F5750409AF0F1F08823EF
:1012F0004AF0EE0FFF1FBB1F661F771F881F91501C
:101300005040A9F79E3F510580F00C94DE080C94E4
:1013100029095F3FE4F3983ED4F386957795679566
:10132000B795F795E7959F5FC1F7FE2B880F911D45
:101330009695879597F90895BB274A3031F49923FC
:1013400022F4BDE2909581959F4F0C94A809BB278C
:10135000FB015527AA27880F991FAA1FA41710F071
:10136000A41B83955051B9F7A05DAA3308F0A95D7D
:10137000A193009779F7B111B1931192CB010C941D
:10138000C109DC01FC01672F71917723E1F73297E6
:1013900004C07C916D9370836291AE17BF07C8F350
:0613A0000895F894FFCF50
:1013A60008010054656D703A200057696C673A2051
:1013B600004369736E3A200057473A202000250003
:1013C60057473A20004E61736C3A2000436F666EB1
:1013D600696A00486973743A20002D3E20004F6404
:1013E600637A797420706F6D6961726F77005072DD
:1013F6006F676900557374617769656E696100424C
:10140600757A7A65723A200042543A200045525263
:101416004F52002E00537465726F776E696B2064AD
:101426006F006D6F6E69746F726F77616E696100C0
:10143600776172756E6B6F7720777A726F737475DA
:1014460000726F736C696E0057796B6F6E616C3AE0
:101456000050696F7472204B617270696B003000C6
:00000001FF
